:100000000C942A000C943F000C943F000C943F0089
:100010000C943F000C943F000C943F000C943F0064
:100020000C943F000C943F000C943F000C943F0054
:100030000C943F000C943F000C943F000C943F0044
:100040000C943F000C943F000C943F000C943F0034
:100050000C943F0011241FBECFE5D8E0DEBFCDBF1A
:1000600010E0A0E6B0E0E2EAF2E002C005900D92F6
:10007000A237B107D9F70E9415010C944F010C94D7
:10008000000083FF02C0DF9A01C0DF9882FF02C038
:10009000DE9A01C0DE9881FF02C0DD9A01C0DD98C2
:1000A00080FF02C0DC9A01C0DC98C39A82E08A9586
:1000B000F1F700C0C3980895CF93C82FC198C29894
:1000C00082958F700E9441008C2F0E944100C15088
:1000D000C23038F48FE697E10197F1F700C00000D5
:1000E00004C095E89A95F1F70000CF9108958295A4
:1000F000880F880F807C8068860F0E945C000895BE
:10010000CF93C82FC298C19A82958F700E944100E8
:100110008C2F0E94410085E88A95F1F70000CF916D
:100120000895CF93DF93EC018881882331F02196E5
:100130000E94800089918111FBCFDF91CF910895BA
:100140001F93CF93DF93182FD62FC42FB99ABA9A43
:10015000BB9AD79AD69AD59AD49A8FE39CE90197FD
:10016000F1F700C0000083E00E9441008FE097E2B9
:100170000197F1F700C0000083E00E9441008BE28C
:1001800091E00197F1F700C0000083E00E94410078
:100190008BE291E00197F1F700C0000082E00E943D
:1001A00041008BE291E00197F1F700C00000812F40
:1001B00082958F700E944100812F0E94410095E836
:1001C0009A95F1F7000080E00E94410088E00E94CB
:1001D000410085E88A95F1F7000080E00E94410027
:1001E00081E00E9441008FE697E10197F1F700C09E
:1001F00000008D2F82958F700E9441008D2F0E94EC
:10020000410095E89A95F1F700008C2F82958F7048
:100210000E9441008C2F0E94410085E88A95F1F7E9
:100220000000DF91CF911F9108954CE066E088E2D5
:100230000E94A00080E690E00E94910062E081E0D0
:100240000E94770089E690E00E9491002FEF89E6F6
:1002500098E1215080409040E1F700C000008CE11F
:100260000E945C002FEF89E698E121508040904089
:10027000E1F700C0000088E10E945C002FEF89E6F2
:1002800098E1215080409040E1F700C0000081E0FB
:100290000E945C0080E690E00E949100FFCFF894FD
:0202A000FFCF8E
:1002A200456D6265646465640053797374656D734A
:0202B20000004A
:00000001FF
