:100000000C942A000C943F000C943F000C943F0089
:100010000C943F000C943F000C943F000C943F0064
:100020000C943F000C943F000C943F000C943F0054
:100030000C943F000C943F000C943F000C943F0044
:100040000C943F000C943F000C943F000C943F0034
:100050000C943F0011241FBECFE5D8E0DEBFCDBF1A
:1000600010E0A0E6B0E0EEEEF1E002C005900D92E7
:10007000A237B107D9F70E94C2000C94F5000C9486
:100080000000C29A87EC90E00197F1F700C00000F1
:10009000C2988FE097E20197F1F700C00000089541
:1000A000CF93C82F882314F4C79A01C0C798C6FFFE
:1000B00002C0C69A01C0C698C5FF02C0C59A01C059
:1000C000C598C4FF02C0C49A01C0C4980E944100F0
:1000D000C3FF02C0C79A01C0C798C2FF02C0C69A38
:1000E00001C0C698C1FF02C0C59A01C0C598C0FF33
:1000F00002C0C49A01C0C4980E944100CF910895E3
:10010000C098C1980E94500008958295880F880F6A
:10011000807C8068860F0E9480000895C198C09AF4
:100120000E9450000895CF93DF93EC0188818823CB
:1001300031F021960E948E0089918111FBCFDF91D1
:10014000CF9108958FE295E70197F1F700C0000085
:10015000B89AB99ABA9ABF9ABE9ABD9ABC9A83E3E2
:100160000E94500082E30E94500088E20E945000EA
:100170008CE00E94500086E00E94500081E00E94C6
:10018000500008950E94A20080E690E00E94930033
:1001900062E081E00E94850089E690E00E94930081
:1001A0002FEF89E698E1215080409040E1F700C0B0
:1001B00000008CE10E9480002FEF89E698E1215039
:1001C00080409040E1F700C000008CE10E94800078
:1001D0002FEF89E698E1215080409040E1F700C080
:0E01E000000081E00E948000FFCFF894FFCF66
:1001EE00456D6265646465640053797374656D73FF
:0201FE000000FF
:00000001FF
